:1000000003308A00E32B0000FF00030E8301A100F0
:100010000A08A0008A010408A2007708A300780853
:10002000A4007908A5007A08A600831383128C30F7
:100030008400801E1D288C1A2E2822088400230884
:10004000F7002408F8002508F9002608FA0020081F
:100050008A00210E8300FF0E7F0E09008A110A120A
:10006000FA290A108A100A11820728340C34013444
:1000700006340C173A10C3376E3AF2376C10E4327C
:10008000202B6536EF316932613220326510321033
:10009000CD37F437F2327310E432A0214410CD3260
:1000A000E4346137F43220266110D021201D2E0562
:1000B0008A0600002010201020173A1049376739AF
:1000C000E5396510EC30202B6536EF31693261324D
:1000D0002022E539E530E430203861396110C33041
:1000E000E430A0266F3A6F39201D2E058A060001E4
:1000F0003A1DA021EF366137E4377310F030F2304B
:10010000A020F5366537F4307210EC30202B6536C0
:10011000EF316932613220058A0600013A1D202C38
:10012000A01E2027F53665396F10E432A0266F3AFD
:100130006F392014B116B2140A050D003A1D202B98
:10014000A01E202B6536EF316932613220326536D0
:10015000A0266F3A6F392014B016B9140A050D00A5
:100160003A1DA024EE33F232F332A0326C10E337A2
:10017000ED306E326F102D1FA022EA326D38EC3751
:100180002014582BA01EA018B91420058A060001BF
:100190003A1DA0266F3A6F39A018A030A0326C101B
:1001A0003918A53120326510D632EC37E334E4300B
:1001B000641020058A0600003A1DA024EE33F232B6
:1001C000F332A0326C10E337ED306E326F1D200039
:1001D000F701F801440803104518F707F70CF80C6D
:1001E000C518F707F70CF80C4519F707F70CF80CCA
:1001F000C519F707F70CF80C451AF707F70CF80CB8
:10020000C51AF707F70CF80C451BF707F70CF80CA5
:10021000C51BF707F70CF80C08000B08C4008B137C
:10022000831603178C170C140000000083120C08AF
:100230007F39031956290313C50003170D0803134B
:10024000C60003170F080313C70045080C1E262914
:100250009900460803178D000313470803178F0002
:1002600083168C170C140000000083120C0D0E0D69
:100270007F39031956290313C50003170D0803130B
:10028000C60003170F080313C70045080C1E4629B4
:100290009900460803178D000313470803178F00C2
:1002A0008D0A03198F0A0313102903170313C41BA4
:1002B0008B1708000B08C5008B13831603178C17C8
:1002C0000C140000000003188D2983120C087F39DC
:1002D0000313C60003170D080313C70003170F0805
:1002E0000313C80046080C1E73299900470803171A
:1002F0008D000313480803178F0083168C170C1406
:100300000000000083120313C40B87298A29831677
:1003100003178D29AD298316031783120C0D0E0DBB
:100320007F390313C60003170D080313C700031713
:100330000F080313C80046080C1E9C2999004708A3
:1003400003178D000313480803178F008D0A031944
:100350008F0A03100313C40B5D29C51B8B170800FC
:10036000393003178D0000308F0003130D215A30F0
:1003700003178D0000308F0003130D217830031711
:100380008D0000308F0003130D218E3003178D0078
:1003900000308F0003130D219E3003178D000030B5
:1003A0008F0003130D21B03003178D0000308F0034
:1003B00003130D21C83003178D0000308F00031088
:1003C00012300313C4005A212C080C1EE529990091
:1003D000D23003178D0000308F000310123003134A
:1003E000C4005A21DC3003178D0000308F00031346
:1003F0000D2108002830840083138403840A8C1E96
:10040000FF291A0880000D300002031DFE2980011B
:100410002808AA002908AB0030302B02AF002A08B8
:10042000313C031D232A2F08C4000A30C500E820F0
:100430007808AD002F08C4000A30C500E820B101DB
:100440007808B000362A2A08323C031D362A2F08C5
:10045000C4000A30C500E8207808AE002F08C400A8
:100460000A30C500E820B3017808B200B0218C1230
:100470008A110A121D28CD37F4377210311DA012CF
:10048000E91263102000CD37F4377210321DA0122C
:10049000E912631020003B30840083130008031925
:1004A0005F2A0130F800F701F70B542AF80B532AA2
:1004B0004A30F700F70B5A2A5D2A800B512A0800B0
:1004C000420EF039F7000F3008057704880000006D
:1004D00008146A2A081008000808F700080E0F39E7
:1004E000F80008008316081088100811831288107D
:1004F0000F3083160805F0388800831208150000B5
:10050000081400006C227808C200081000000814CB
:1005100000006C227808C10008100F30831608050F
:1005200088008312420EF700F030F7057708410487
:10053000F8007808C100C11B782A3F1C88103F18BA
:1005400088140000081100000810400EC1000F3090
:10055000C1054108C200602240080F39C100C20035
:10056000602208000F3083160805880008108810E4
:10057000081183128810081108100F30BB004B229D
:100580000130B4003408033C031CCE2A0330C200FF
:1005900060220530BB004B22B40AC22A0230C200DE
:1005A00060220530BB004B22B4013408033C031C1D
:1005B000E22A34083120B500BF013508C00072229C
:1005C000B40AD52A8A110A12FD2B3C0BE82AEB2A21
:1005D0004030BD00EC2ABD0101303B02BD073D08A3
:1005E0008038BE00BF013E08C000722208003A08F1
:1005F000073A0319052B0B3A03190A2B063A03197C
:10060000122B023A0319182B1D2B0130BB00BC0022
:10061000E522222BBF010130C00072220230BB0054
:100620004B22222B0130BB000230BC00E522222BE2
:10063000BF011030C0007222222B0130BF003A08E7
:10064000C000722208000B08B5008B138316031735
:100650008C170C14000000000318552B83120C0893
:100660007F390313B60003170D080313B7000317F0
:100670000F080313B8003608BA00F722370803172B
:100680008D000313380803178F0083168C170C1482
:100690000000000083120313B40B4F2B522B831660
:1006A0000317552B742B8316031783120C0D0E0D95
:1006B0007F390313B60003170D080313B7000317A0
:1006C0000F080313B8003608BA00F72237080317DB
:1006D0008D000313380803178F008D0A03198F0A42
:1006E00003100313B40B262BB51B8B1708003B0814
:1006F000F8013A0203187F2B3A08F7008B2BF70119
:100700000830BC00BA0DF70D3B0877020318F7005C
:10071000F80DBC0B822B08002030351E3030B6009F
:100720003408F700B41F9C2BF709F70A7708B400C8
:100730002D30B600B51735143408BA006430BB004C
:1007400077237708B40030307807B7003408BA0050
:100750000A30BB00772330307707B9003030780794
:10076000B8003608F700303037020319BB2BB51438
:10077000B51B3515CF2B3608B7002030B60030300A
:1007800038020319C72B3514B51BB514CF2B031D25
:100790003514031DCF2B3708B8002030B7003519AA
:1007A000D62BB518D92B3518DC2BDF2B3608BA0021
:1007B000F7223708BA00F7223808BA00F7223908BA
:1007C000BA00F722080003081F3983001930831686
:1007D0009900A63098009030831298002530AC0024
:1007E00083161F149F141F159F1107309C0083133D
:1007F0008C16C03083128B04B22AA7018B1BA7175B
:100800008B13B021A71B8B178316861083128614B7
:100810003108B400B40AB4030319122CFF30BB0032
:100820004B220B2C3008BB004B2283168610831200
:1008300086103008643CB400B5013108031C310F48
:10084000B5023508B600B60AB60303192B2CFF30E3
:10085000BB004B22242C3408BB004B22831606120B
:10086000831206163308B400B40AB40303193C2CEF
:10087000FF30BB004B22352C3208BB004B228316C5
:100880000612831206123208643CB400B501330824
:10089000031C330FB5023508B600B60AB6030319B8
:1008A000552CFF30BB004B224E2C3408BB004B2292
:1008B0000130BB00BC00E5223B3003178D00023045
:1008C0008F00031009300313B40023232D08B40054
:1008D0001830B5008C232C08BA00F7222030BA005B
:1008E000F7222030BA00F7220130BB000230BC00F2
:1008F000E522433003178D0002308F0003100930CA
:100900000313B40023232E08B4001830B5008C2341
:100910002C08BA00F7222030BA00F7222030BA00A3
:06092000F722042C630025
:02400E00713F00
:00000001FF
;PIC16F877A
;CRC=5388  CREATED="24-dic.-23 17:37"
